S011000053696D6F6E47616D652E7372656393
S11300000C9434000C9451000C9451000C94510045
S11300100C9451000C9451000C9451000C94510018
S11300200C9451000C9451000C9451000C94510008
S11300300C9451000C9451000C9451000C945100F8
S11300400C9451000C9451000C9451000C945100E8
S11300500C9451000C9451000C9451000C945100D8
S11300600C9451000C94510011241FBECFEFD8E022
S1130070DEBFCDBF11E0A0E0B1E0EEEDF5E002C0DF
S113008005900D92A630B107D9F721E0A6E0B1E0C2
S113009001C01D92AC30B207E1F70E9405010C9437
S11300A0ED020C940000FC010FB6F8946091080175
S11300B07091090180910A0190910B010FBE309754
S11300C021F0608371838283938308950E949C014D
S11300D0089521E030E002C0220F331F8A95E2F731
S11300E029B92FEF83EC99E0215080409040E1F74B
S11300F000C0000019B80895E0910601F0E0E95F3E
S1130100FE4F208191E0281390E0892F089580917B
S11301100601813061F4109204012FEF83ED90E326
S1130120215080409040E1F700C0000008958F5FA7
S113013080930601089580E090E00E945300CB0173
S11301400E9469020E94640283709078992324F4C7
S113015001978C6F9F6F0196029680930801089512
S1130160CF93DF93C0E0D0E011C0FE01E95FFE4F02
S1130170808190E00E9469002FEF85EA9EE0215083
S113018080409040E1F700C000002196209769F379
S1130190DF91CF91089580E090E00E947402811174
S11301A005C0682F80E090E00E947C0208952FEF44
S11301B080E792E0215080409040E1F700C00000C9
S11301C02FEF86E191E1215080409040E1F700C09B
S11301D000002FEF86E191E1215080409040E1F74B
S11301E000C000002FEF83EC99E021508040904044
S11301F0E1F700C000000E94CB0080E38093070178
S1130200109206011092040108950E9466008CE386
S11302108AB980E184B98FE085B987B18D7F87B9C8
S113022088B1826088B988B180E090E00E9474024D
S1130230880F880F8BB91BB82FEF89E698E12150FE
S113024080409040E1F700C00000809104018111DA
S113025009C0109206010E949B000E94B00081E038
S11302608093040183B18130B9F485E390E00E9466
S113027069002FEF84E39CE0215080409040E1F737
S113028000C0000085E30E947C00882319F00E94CE
S1130290870002C00E94D70083B18230B9F484E39E
S11302A090E00E9469002FEF84E39CE0215080409D
S11302B09040E1F700C0000084E30E947C008823A2
S11302C019F00E94870002C00E94D70083B18430D5
S11302D0B9F483E390E00E9469002FEF84E39CE08B
S11302E0215080409040E1F700C0000083E30E9469
S11302F07C00882319F00E94870002C00E94D70066
S113030083B1883009F0A1CF82E390E00E946900B4
S11303102FEF84E39CE0215080409040E1F700C03F
S1130320000082E30E947C00882319F00E94870069
S11303308CCF0E94D70089CF8FEE8093640084B164
S113034014B885B19FEF95B987B1807887B988B122
S11303508F6788B98AB11AB88BB19BB984B18E7F83
S113036084B985B1816085B984B18E7F84B985B142
S1130370816085B984B18D7F84B985B1826085B986
S113038084B18D7F84B985B1826085B984B18B7F56
S113039084B985B1846085B984B18B7F84B985B112
S11303A0846085B984B1877F84B985B1886085B953
S11303B084B1877F84B985B1886085B984B180614F
S11303C084B985B18F7E85B987B18F7B87B988B1B0
S11303D0806488B987B18F7B87B988B1806488B914
S11303E08AB184608AB98BB18B7F8BB98AB18860FA
S11303F08AB98BB1877F8BB98AB180618AB98BB195
S11304008F7E8BB98AB180628AB98BB18F7D8BB9AB
S113041040E060E881E690E00E94110213BE15BE40
S113042008952FB7F894FC01608340832FBF08958B
S11304308F929F92AF92BF92CF92DF92EF92FF92F0
S1130440CF93DF93EC01688179818A819B81611567
S113045071058105910521F464E279ED8BE597E05E
S11304602DE133EF41E050E00E948A0249015A0134
S11304709B01AC01A7EAB1E40E94A9026B017C01D3
S1130480ACEEB4EFA50194010E94B702DC01CB01EC
S11304908C0D9D1DAE1DBF1DB7FF03C00197A109A3
S11304A0B04888839983AA83BB839F77DF91CF91D8
S11304B0FF90EF90DF90CF90BF90AF909F908F9080
S11304C008950E941802089580E091E00E941802A5
S11304D00895A0E0B0E08093000190930101A093FF
S11304E00201B09303010895F999FECF92BD81BD35
S11304F0F89A992780B50895262FF999FECF1FBA47
S113050092BD81BD20BD0FB6F894FA9AF99A0FBE38
S113051001960895052E97FB1EF400940E94A102F3
S113052057FD07D00E94BC0207FC03D04EF40C9484
S1130530A10250954095309521953F4F4F4F5F4F05
S1130540089590958095709561957F4F8F4F9F4F3B
S113055008950E94DE02A59F900DB49F900DA49F64
S1130560800D911D11240895B7FF0C94A9020E94D7
S1130570A902821B930B0895A1E21A2EAA1BBB1B8E
S1130580FD010DC0AA1FBB1FEE1FFF1FA217B3075B
S1130590E407F50720F0A21BB30BE40BF50B661F71
S11305A0771F881F991F1A9469F760957095809535
S11305B090959B01AC01BD01CF010895A29FB001AC
S11305C0B39FC001A39F700D811D1124911DB29F83
S11105D0700D811D1124911D0895F894FFCF24
S10905DE01000000010011
S9030000FC
