S011000053696D6F6E47616D652E7372656393
S11300000C943E000C945B000C945B000C945B001D
S11300100C945B000C945B000C945B000C945B00F0
S11300200C945B000C945B000C945B000C945B00E0
S11300300C945B000C945B000C945B000C945B00D0
S11300400C945B000C945B000C945B000C945B00C0
S11300500C945B000C945B000C945B000C945B00B0
S11300600C945B000C945B000C945B000C945B00A0
S11300700C945B000C945B000C945B0011241FBE79
S1130080CFEFCDBFDFE3DEBF18E3A0E0B8E3E2E1EA
S1130090F9E002C005900D92A630B107D9F728E324
S11300A0A6E0B8E301C01D92AE31B207E1F70E94A9
S11300B0E5010C9487040C9400000E942003089529
S11300C01092040420E030E046C080FF03C094E0B6
S11300D09093040497E39A95F1F700C081FF03C05D
S11300E094E49093040497E39A95F1F700C082FF97
S11300F003C094E29093040497E39A95F1F700C047
S113010083FF03C094E69093040497E39A95F1F770
S113011000C084FF03C094E19093040497E39A958C
S1130120F1F700C085FF03C094E59093040497E3BE
S11301309A95F1F700C086FF03C094E390930404FA
S113014097E39A95F1F700C0E4E0F4E090819F789A
S113015090832F5F3F4F203B94E039070CF4B5CFD9
S1130160E4E0F4E0808183788083089521E030E046
S1130170082E02C0220F331F0A94E2F720932404AE
S11301808130910589F01CF4892B39F021C082302B
S1130190910589F00397B1F01BC060E070EF87E729
S11301A096E00E94870314C060E070EF8AE196E055
S11301B00E9487030DC060E070EF88EB92E00E941C
S11301C0870306C060E070EF86E391E00E94870336
S11301D080910738882341F025ED88E092E0215092
S11301E080409040E1F709C02FE78AE196E0215072
S11301F080409040E1F700C000001092240408956C
S1130200E0910938F0E0E65FF74C208191E0281393
S113021090E090930638892F0895809109388F5F74
S11302208093093890910838891749F081E08093C8
S113023007388DE890E20197F1F7000008951092D5
S1130240073808952AE684E091E0215080409040E8
S1130250E1F700C00E94ED0383709078992324F4A1
S113026001978C6F9F6F019690910838E92FF0E009
S1130270E65FF74C80839F5F909308380895CF938F
S1130280DF93C0E0D0E00DC0FE01E65FF74C808153
S113029090E00E94B60082EC92EA0197F1F700C068
S11302A021968091083890E0C817D9076CF3DF9144
S11302B0CF91089560E070EF80E795E00E94870396
S11302C060E070EF81EA93E00E94870360E070EFE2
S11302D082E994E00E94870360E070EF88EB92E08B
S11302E00E94870360E070EF88EB92E00E9487032E
S11302F060E070EF82E994E00E94870360E070EFB1
S113030088EB92E00E94870360E070EF88EB92E054
S11303100E948703089580E090E00E94FD036091AD
S11303200838615060930838861720F480E090E024
S11303300E940504089560E070EF80E795E00E9454
S1130340870360E070EF80E795E00E94870360E038
S113035070EF86E89BE00E94870360E070EF86E818
S11303609BE00E94870360E070EF8AE698E10E94B8
S1130370870360E070EF8AE698E10E94870360E0FB
S113038070EF8AE698E10E9487030E948B0180E364
S113039080930A38109209381092073880E090E070
S11303A005C0FC01E65FF74C10820196843191058B
S11303B0C4F31092083825E186E195E0215080408D
S11303C09040E1F70E945A0108950E945D00109246
S11303D0040480910438909105380E94F203C4E229
S11303E0D4E08FE088838FE390E00E9460002AE6E7
S11303F084E091E0215080409040E1F700C086E025
S113040090E00E9460002AE684E091E02150804060
S11304109040E1F700C08BE590E00E9460002AE67E
S113042084E091E0215080409040E1F700C08FE4E7
S113043090E00E9460002AE684E091E02150804030
S11304409040E1F700C086E690E00E9460002AE652
S113045084E091E0215080409040E1F700C08DE6B7
S113046090E00E9460002AE684E091E02150804000
S11304709040E1F700C08DE790E00E9460002AE61A
S113048084E091E0215080409040E1F700C087E093
S113049090E00E9460002AE684E091E021508040D0
S11304A09040E1F700C08FE790E00E9460002AE6E8
S11304B084E091E0215080409040E1F700C08FE655
S11304C090E00E9460002AE684E091E021508040A0
S11304D09040E1F700C080E090E00E94FD03888333
S11304E02FEF84E39CE0215080409040E1F700C06E
S11304F00000188225ED88E092E021508040904071
S1130500E1F70E945A0180910738811109C01092C5
S113051009380E9422010E943F0181E0809307383C
S1130520509917C080E090E00E94B6002FE986E859
S113053091E0215080409040E1F700C0000080E04D
S11305400E940001882319F00E940D0102C00E943C
S11305509B01519917C081E090E00E94B6002FE9F9
S113056086E891E0215080409040E1F700C000000F
S113057081E00E940001882319F00E940D0102C04D
S11305800E949B01529917C082E090E00E94B6003D
S11305902FE986E891E0215080409040E1F700C0C7
S11305A0000082E00E940001882319F00E940D01DE
S11305B002C00E949B015399A6CF83E090E00E9461
S11305C0B6002FE986E891E0215080409040E1F7A1
S11305D000C0000083E00E940001882319F00E94FB
S11305E00D0191CF0E949B018ECF80E0089580E0A1
S11305F0089580E0089580E008C0E82FF0E0E05F0F
S1130600FB4F9081986090838F5F8830B0F380E0D7
S113061008C0E82FF0E0E05DFB4F90819860908384
S11306208F5F8830B0F380E008C0E82FF0E0E05B33
S1130630FB4F9081986090838F5F8830B0F308956A
S11306400E94FB0281B18D7F81B980B1826080B943
S113065081B18B7F81B980B1846080B981B1877F9A
S113066081B980B1886080B981B18F7E81B980B150
S1130670806180B981B18F7D81B980B1806280B998
S113068081B18F7B81B980B1806480B985B18E7F5F
S113069085B984B1816084B985B18D7F85B984B110
S11306A0826084B985B18B7F85B984B1846084B953
S11306B085B1877F85B984B1886084B988B18E7F1C
S11306C088B9E0E5F4E080818860808388B18D7F1B
S11306D088B9E1E5F4E080818860808388B18B7F0C
S11306E088B9E2E5F4E080818860808388B1877FFF
S11306F088B9E3E5F4E08081886080830E94F70292
S11307000E94F9020E949F030E94F502089540E0AE
S113071050E011C000002F5F3F4F02C020E030E0E6
S113072028173907B8F3E0E0F4E0348122E0232706
S11307302483480F591F4617570780F3089580E014
S113074008958F929F92AF92BF92CF92DF92EF92D1
S1130750FF92CF93DF93EC01688179818A819B8139
S1130760611571058105910521F464E279ED8BE54C
S113077097E02DE133EF41E050E00E942404490169
S11307805A019B01AC01A7EAB1E40E9443046B0146
S11307907C01ACEEB4EFA50194010E945104DC018C
S11307A0CB018C0D9D1DAE1DBF1DB7FF03C001976E
S11307B0A109B04888839983AA83BB839F77DF917B
S11307C0CF91FF90EF90DF90CF90BF90AF909F902C
S11307D08F9008950E94A103089580E098E30E94F9
S11307E0A1030895A0E0B0E080930038909301380D
S11307F0A0930238B0930338089503D080819927D9
S11308000895FC01E050FC4E0895262F0E94010437
S11308100080021619F00E941104019701970895AF
S1130820262FAF93BF93E0E0F0E1328131FDFDCF9D
S1130830DC01A050BC4E2C932DE924BF23E020837F
S11308400196BF91AF910895052E97FB1EF4009475
S11308500E943B0457FD07D00E94560407FC03D0B6
S11308604EF40C943B0450954095309521953F4FA0
S11308704F4F5F4F089590958095709561957F4F88
S11308808F4F9F4F08950E947804A59F900DB49FA9
S1130890900DA49F800D911D11240895B7FF0C9411
S11308A043040E944304821B930B0895A1E21A2E71
S11308B0AA1BBB1BFD010DC0AA1FBB1FEE1FFF1F00
S11308C0A217B307E407F50720F0A21BB30BE40B50
S11308D0F50B661F771F881F991F1A9469F7609597
S11308E07095809590959B01AC01BD01CF01089551
S11308F0A29FB001B39FC001A39F700D811D11245D
S1130900911DB29F700D811D1124911D0895F894BD
S1050910FFCF13
S1090912010000000E00CC
S9030000FC
